{
  "contractName": "blog",
  "abi": [
    {
      "constant": true,
      "inputs": [],
      "name": "blogCount",
      "outputs": [
        {
          "name": "",
          "type": "uint256"
        }
      ],
      "payable": false,
      "stateMutability": "view",
      "type": "function"
    },
    {
      "constant": true,
      "inputs": [
        {
          "name": "",
          "type": "uint256"
        }
      ],
      "name": "blogfeeds",
      "outputs": [
        {
          "name": "publisher",
          "type": "address"
        },
        {
          "name": "blogdesc",
          "type": "string"
        }
      ],
      "payable": false,
      "stateMutability": "view",
      "type": "function"
    },
    {
      "constant": false,
      "inputs": [
        {
          "name": "blogdesc",
          "type": "string"
        }
      ],
      "name": "addblog",
      "outputs": [],
      "payable": false,
      "stateMutability": "nonpayable",
      "type": "function"
    }
  ],
  "bytecode": "0x608060405234801561001057600080fd5b50610443806100206000396000f3fe608060405234801561001057600080fd5b50600436106100415760003560e01c8063b2bca90814610046578063e882429914610101578063f6865dcd1461011f575b600080fd5b6100ff6004803603602081101561005c57600080fd5b810190808035906020019064010000000081111561007957600080fd5b82018360208201111561008b57600080fd5b803590602001918460018302840111640100000000831117156100ad57600080fd5b91908080601f016020809104026020016040519081016040528093929190818152602001838380828437600081840152601f19601f8201169050808301925050505050505091929192905050506101f9565b005b610109610290565b6040518082815260200191505060405180910390f35b61014b6004803603602081101561013557600080fd5b8101908080359060200190929190505050610296565b604051808373ffffffffffffffffffffffffffffffffffffffff1673ffffffffffffffffffffffffffffffffffffffff16815260200180602001828103825283818151815260200191508051906020019080838360005b838110156101bd5780820151818401526020810190506101a2565b50505050905090810190601f1680156101ea5780820380516001836020036101000a031916815260200191505b50935050505060405180910390f35b60016000815480929190600101919050555033600080600154815260200190815260200160002060000160006101000a81548173ffffffffffffffffffffffffffffffffffffffff021916908373ffffffffffffffffffffffffffffffffffffffff160217905550806000806001548152602001908152602001600020600101908051906020019061028c929190610372565b5050565b60015481565b60006020528060005260406000206000915090508060000160009054906101000a900473ffffffffffffffffffffffffffffffffffffffff1690806001018054600181600116156101000203166002900480601f0160208091040260200160405190810160405280929190818152602001828054600181600116156101000203166002900480156103685780601f1061033d57610100808354040283529160200191610368565b820191906000526020600020905b81548152906001019060200180831161034b57829003601f168201915b5050505050905082565b828054600181600116156101000203166002900490600052602060002090601f016020900481019282601f106103b357805160ff19168380011785556103e1565b828001600101855582156103e1579182015b828111156103e05782518255916020019190600101906103c5565b5b5090506103ee91906103f2565b5090565b61041491905b808211156104105760008160009055506001016103f8565b5090565b9056fea165627a7a723058208aee453f2a8583eaab39d5cb4159ea28e5a2d6fa8bc35ac3add5e3e5418b7bc30029",
  "source": "pragma solidity >=0.4.0 <=0.7.4;\r\ncontract blog{\r\nstruct blogfeed{\r\naddress publisher;\r\nstring blogdesc;\r\n}\r\nmapping(uint => blogfeed) public blogfeeds;\r\nuint public blogCount;\r\nfunction addblog(string memory blogdesc) public {\r\nblogCount++;\r\nblogfeeds[blogCount].publisher = msg.sender;\r\nblogfeeds[blogCount].blogdesc = blogdesc;\r\n}\r\n}",
  "sourcePath": "C:/Users/Praveen/blog/contracts/blog.sol",
  "compiler": {
    "name": "solc",
    "version": "0.5.8+commit.23d335f2.Emscripten.clang"
  },
  "schemaVersion": "3.0.11",
  "updatedAt": "2021-02-12T07:38:06.621Z",
  "devdoc": {
    "methods": {}
  },
  "userdoc": {
    "methods": {}
  }
}